{
  "transactions": [
    {
      "hash": "0xf7170d37d328b3b1276a327edb0cf76f127e2ff0edae77e6b59981d066189359",
      "transactionType": "CALL",
      "contractName": null,
      "contractAddress": "0x6e964a4a8ccfd0e3c598c2cbeeb55f0c7ba6342d",
      "function": "flip(bool)",
      "arguments": [
        "true"
      ],
      "transaction": {
        "from": "0xc717879fbc3ea9f770c0927374ed74a998a3e2ce",
        "to": "0x6e964a4a8ccfd0e3c598c2cbeeb55f0c7ba6342d",
        "gas": "0x16fde",
        "value": "0x0",
        "input": "0x1d263f670000000000000000000000000000000000000000000000000000000000000001",
        "nonce": "0x13",
        "chainId": "0xaa36a7"
      },
      "additionalContracts": [],
      "isFixedGasLimit": false
    }
  ],
  "receipts": [
    {
      "status": "0x1",
      "cumulativeGasUsed": "0x128b45c",
      "logs": [],
      "logsBloom": "0x00000000000000000000000000000000000000000000000000000000000000000000000000000000000000000000000000000000000000000000000000000000000000000000000000000000000000000000000000000000000000000000000000000000000000000000000000000000000000000000000000000000000000000000000000000000000000000000000000000000000000000000000000000000000000000000000000000000000000000000000000000000000000000000000000000000000000000000000000000000000000000000000000000000000000000000000000000000000000000000000000000000000000000000000000000000",
      "type": "0x2",
      "transactionHash": "0xf7170d37d328b3b1276a327edb0cf76f127e2ff0edae77e6b59981d066189359",
      "transactionIndex": "0x81",
      "blockHash": "0x702f0f4df3fe445afae156edd244270ea3dcb83e676cec70305e4dcbd5878ac4",
      "blockNumber": "0x80e882",
      "gasUsed": "0x10a55",
      "effectiveGasPrice": "0x11f74e",
      "from": "0xc717879fbc3ea9f770c0927374ed74a998a3e2ce",
      "to": "0x6e964a4a8ccfd0e3c598c2cbeeb55f0c7ba6342d",
      "contractAddress": null
    }
  ],
  "libraries": [],
  "pending": [],
  "returns": {},
  "timestamp": 1748716215,
  "chain": 11155111,
  "commit": "d651d9c"
}